{
  "_format": "hh-sol-artifact-1",
  "contractName": "Gambling",
  "sourceName": "contracts/Gambling.sol",
  "abi": [
    {
      "inputs": [
        {
          "internalType": "address",
          "name": "_token",
          "type": "address"
        }
      ],
      "stateMutability": "nonpayable",
      "type": "constructor"
    },
    {
      "anonymous": false,
      "inputs": [
        {
          "indexed": true,
          "internalType": "address",
          "name": "player",
          "type": "address"
        },
        {
          "indexed": false,
          "internalType": "uint256",
          "name": "betAmount",
          "type": "uint256"
        },
        {
          "indexed": false,
          "internalType": "uint8",
          "name": "cardIndex",
          "type": "uint8"
        },
        {
          "indexed": false,
          "internalType": "bool",
          "name": "win",
          "type": "bool"
        },
        {
          "indexed": false,
          "internalType": "uint256",
          "name": "payout",
          "type": "uint256"
        }
      ],
      "name": "BetPlaced",
      "type": "event"
    },
    {
      "inputs": [
        {
          "internalType": "uint256",
          "name": "amount",
          "type": "uint256"
        },
        {
          "internalType": "uint8",
          "name": "cardIndex",
          "type": "uint8"
        }
      ],
      "name": "bet",
      "outputs": [],
      "stateMutability": "nonpayable",
      "type": "function"
    },
    {
      "inputs": [
        {
          "internalType": "uint256",
          "name": "amount",
          "type": "uint256"
        }
      ],
      "name": "deposit",
      "outputs": [],
      "stateMutability": "nonpayable",
      "type": "function"
    },
    {
      "inputs": [],
      "name": "getMultipliers",
      "outputs": [
        {
          "internalType": "uint256[]",
          "name": "",
          "type": "uint256[]"
        }
      ],
      "stateMutability": "view",
      "type": "function"
    },
    {
      "inputs": [
        {
          "internalType": "uint256",
          "name": "",
          "type": "uint256"
        }
      ],
      "name": "multipliers",
      "outputs": [
        {
          "internalType": "uint256",
          "name": "",
          "type": "uint256"
        }
      ],
      "stateMutability": "view",
      "type": "function"
    },
    {
      "inputs": [],
      "name": "owner",
      "outputs": [
        {
          "internalType": "address",
          "name": "",
          "type": "address"
        }
      ],
      "stateMutability": "view",
      "type": "function"
    },
    {
      "inputs": [
        {
          "internalType": "uint256[]",
          "name": "newMultipliers",
          "type": "uint256[]"
        }
      ],
      "name": "setMultipliers",
      "outputs": [],
      "stateMutability": "nonpayable",
      "type": "function"
    },
    {
      "inputs": [],
      "name": "token",
      "outputs": [
        {
          "internalType": "contract IERC20",
          "name": "",
          "type": "address"
        }
      ],
      "stateMutability": "view",
      "type": "function"
    },
    {
      "inputs": [
        {
          "internalType": "uint256",
          "name": "amount",
          "type": "uint256"
        }
      ],
      "name": "withdraw",
      "outputs": [],
      "stateMutability": "nonpayable",
      "type": "function"
    }
  ],
  "bytecode": "0x60806040523480156200001157600080fd5b5060405162001e2438038062001e248339818101604052810190620000379190620001e9565b336000806101000a81548173ffffffffffffffffffffffffffffffffffffffff021916908373ffffffffffffffffffffffffffffffffffffffff16021790555080600160006101000a81548173ffffffffffffffffffffffffffffffffffffffff021916908373ffffffffffffffffffffffffffffffffffffffff160217905550604051806080016040528060fa61ffff16815260200160c861ffff16815260200161012c61ffff168152602001609661ffff1681525060029060046200010092919062000108565b50506200021b565b8280548282559060005260206000209081019282156200014d579160200282015b828111156200014c578251829061ffff1690559160200191906001019062000129565b5b5090506200015c919062000160565b5090565b5b808211156200017b57600081600090555060010162000161565b5090565b600080fd5b600073ffffffffffffffffffffffffffffffffffffffff82169050919050565b6000620001b18262000184565b9050919050565b620001c381620001a4565b8114620001cf57600080fd5b50565b600081519050620001e381620001b8565b92915050565b6000602082840312156200020257620002016200017f565b5b60006200021284828501620001d2565b91505092915050565b611bf9806200022b6000396000f3fe608060405234801561001057600080fd5b50600436106100885760003560e01c8063ac7fc2631161005b578063ac7fc26314610101578063b6b55f2514610131578063c437a0cd1461014d578063fc0c546a1461016957610088565b80632e1a7d4d1461008d57806372282381146100a957806379873f8a146100c55780638da5cb5b146100e3575b600080fd5b6100a760048036038101906100a29190610f74565b610187565b005b6100c360048036038101906100be9190611006565b6103f5565b005b6100cd610499565b6040516100da9190611111565b60405180910390f35b6100eb6104f1565b6040516100f89190611174565b60405180910390f35b61011b60048036038101906101169190610f74565b610515565b604051610128919061119e565b60405180910390f35b61014b60048036038101906101469190610f74565b610539565b005b610167600480360381019061016291906111f2565b6106ab565b005b610171610c83565b60405161017e9190611291565b60405180910390f35b60008054906101000a900473ffffffffffffffffffffffffffffffffffffffff1673ffffffffffffffffffffffffffffffffffffffff163373ffffffffffffffffffffffffffffffffffffffff1614610215576040517f08c379a000000000000000000000000000000000000000000000000000000000815260040161020c90611309565b60405180910390fd5b80600160009054906101000a900473ffffffffffffffffffffffffffffffffffffffff1673ffffffffffffffffffffffffffffffffffffffff166370a08231306040518263ffffffff1660e01b81526004016102719190611174565b602060405180830381865afa15801561028e573d6000803e3d6000fd5b505050506040513d601f19601f820116820180604052508101906102b2919061133e565b10156102f3576040517f08c379a00000000000000000000000000000000000000000000000000000000081526004016102ea906113b7565b60405180910390fd5b600160009054906101000a900473ffffffffffffffffffffffffffffffffffffffff1673ffffffffffffffffffffffffffffffffffffffff1663a9059cbb60008054906101000a900473ffffffffffffffffffffffffffffffffffffffff16836040518363ffffffff1660e01b81526004016103709291906113d7565b6020604051808303816000875af115801561038f573d6000803e3d6000fd5b505050506040513d601f19601f820116820180604052508101906103b39190611438565b6103f2576040517f08c379a00000000000000000000000000000000000000000000000000000000081526004016103e9906114b1565b60405180910390fd5b50565b60008054906101000a900473ffffffffffffffffffffffffffffffffffffffff1673ffffffffffffffffffffffffffffffffffffffff163373ffffffffffffffffffffffffffffffffffffffff1614610483576040517f08c379a000000000000000000000000000000000000000000000000000000000815260040161047a90611543565b60405180910390fd5b818160029190610494929190610ec0565b505050565b606060028054806020026020016040519081016040528092919081815260200182805480156104e757602002820191906000526020600020905b8154815260200190600101908083116104d3575b5050505050905090565b60008054906101000a900473ffffffffffffffffffffffffffffffffffffffff1681565b6002818154811061052557600080fd5b906000526020600020016000915090505481565b60008054906101000a900473ffffffffffffffffffffffffffffffffffffffff1673ffffffffffffffffffffffffffffffffffffffff163373ffffffffffffffffffffffffffffffffffffffff16146105c7576040517f08c379a00000000000000000000000000000000000000000000000000000000081526004016105be906115af565b60405180910390fd5b600160009054906101000a900473ffffffffffffffffffffffffffffffffffffffff1673ffffffffffffffffffffffffffffffffffffffff166323b872dd3330846040518463ffffffff1660e01b8152600401610626939291906115cf565b6020604051808303816000875af1158015610645573d6000803e3d6000fd5b505050506040513d601f19601f820116820180604052508101906106699190611438565b6106a8576040517f08c379a000000000000000000000000000000000000000000000000000000000815260040161069f90611652565b60405180910390fd5b50565b6002805490508160ff16106106f5576040517f08c379a00000000000000000000000000000000000000000000000000000000081526004016106ec906116be565b60405180910390fd5b60008211610738576040517f08c379a000000000000000000000000000000000000000000000000000000000815260040161072f90611750565b60405180910390fd5b600160009054906101000a900473ffffffffffffffffffffffffffffffffffffffff1673ffffffffffffffffffffffffffffffffffffffff166323b872dd3330856040518463ffffffff1660e01b8152600401610797939291906115cf565b6020604051808303816000875af11580156107b6573d6000803e3d6000fd5b505050506040513d601f19601f820116820180604052508101906107da9190611438565b610819576040517f08c379a0000000000000000000000000000000000000000000000000000000008152600401610810906117bc565b60405180910390fd5b6108586040518060400160405280600781526020017f506c617965723a0000000000000000000000000000000000000000000000000081525033610ca9565b6108976040518060400160405280600d81526020017f4265742072656365697665643a0000000000000000000000000000000000000081525083610d45565b6108d96040518060400160405280601481526020017f53656c6563746564206361726420696e6465783a0000000000000000000000008152508260ff16610d45565b60006064424433436040516020016108f49493929190611845565b6040516020818303038152906040528051906020012060001c61091791906118c2565b9050600060328210905060008115610be957600060028560ff1681548110610942576109416118f3565b5b906000526020600020015490506064818761095d9190611951565b6109679190611993565b91506109a86040518060400160405280600b81526020017f4d756c7469706c6965723a00000000000000000000000000000000000000000081525082610d45565b6109e76040518060400160405280601281526020017f43616c63756c61746564207061796f75743a000000000000000000000000000081525083610d45565b81600160009054906101000a900473ffffffffffffffffffffffffffffffffffffffff1673ffffffffffffffffffffffffffffffffffffffff166370a08231306040518263ffffffff1660e01b8152600401610a439190611174565b602060405180830381865afa158015610a60573d6000803e3d6000fd5b505050506040513d601f19601f82011682018060405250810190610a84919061133e565b1015610ac5576040517f08c379a0000000000000000000000000000000000000000000000000000000008152600401610abc906113b7565b60405180910390fd5b600160009054906101000a900473ffffffffffffffffffffffffffffffffffffffff1673ffffffffffffffffffffffffffffffffffffffff1663a9059cbb33846040518363ffffffff1660e01b8152600401610b229291906113d7565b6020604051808303816000875af1158015610b41573d6000803e3d6000fd5b505050506040513d601f19601f82011682018060405250810190610b659190611438565b610ba4576040517f08c379a0000000000000000000000000000000000000000000000000000000008152600401610b9b90611a10565b60405180910390fd5b610be36040518060400160405280600c81526020017f5061796f75742073656e743a000000000000000000000000000000000000000081525083610d45565b50610c28565b610c276040518060400160405280601481526020017f506c61796572206c6f737420746865206265742e000000000000000000000000815250610de1565b5b3373ffffffffffffffffffffffffffffffffffffffff167f38a9c15d65fabdbd8f9671fba2315852f081d47eea23e6b33e8dde593e0e5f8f86868585604051610c749493929190611a4e565b60405180910390a25050505050565b600160009054906101000a900473ffffffffffffffffffffffffffffffffffffffff1681565b610d418282604051602401610cbf929190611b12565b6040516020818303038152906040527f319af333000000000000000000000000000000000000000000000000000000007bffffffffffffffffffffffffffffffffffffffffffffffffffffffff19166020820180517bffffffffffffffffffffffffffffffffffffffffffffffffffffffff8381831617835250505050610e7a565b5050565b610ddd8282604051602401610d5b929190611b42565b6040516020818303038152906040527fb60e72cc000000000000000000000000000000000000000000000000000000007bffffffffffffffffffffffffffffffffffffffffffffffffffffffff19166020820180517bffffffffffffffffffffffffffffffffffffffffffffffffffffffff8381831617835250505050610e7a565b5050565b610e7781604051602401610df59190611b72565b6040516020818303038152906040527f41304fac000000000000000000000000000000000000000000000000000000007bffffffffffffffffffffffffffffffffffffffffffffffffffffffff19166020820180517bffffffffffffffffffffffffffffffffffffffffffffffffffffffff8381831617835250505050610e7a565b50565b610e9181610e89610e94610eb5565b63ffffffff16565b50565b60006a636f6e736f6c652e6c6f679050600080835160208501845afa505050565b610f0d819050919050565b828054828255906000526020600020908101928215610efc579160200282015b82811115610efb578235825591602001919060010190610ee0565b5b509050610f099190610f17565b5090565b610f15611b94565b565b5b80821115610f30576000816000905550600101610f18565b5090565b600080fd5b600080fd5b6000819050919050565b610f5181610f3e565b8114610f5c57600080fd5b50565b600081359050610f6e81610f48565b92915050565b600060208284031215610f8a57610f89610f34565b5b6000610f9884828501610f5f565b91505092915050565b600080fd5b600080fd5b600080fd5b60008083601f840112610fc657610fc5610fa1565b5b8235905067ffffffffffffffff811115610fe357610fe2610fa6565b5b602083019150836020820283011115610fff57610ffe610fab565b5b9250929050565b6000806020838503121561101d5761101c610f34565b5b600083013567ffffffffffffffff81111561103b5761103a610f39565b5b61104785828601610fb0565b92509250509250929050565b600081519050919050565b600082825260208201905092915050565b6000819050602082019050919050565b61108881610f3e565b82525050565b600061109a838361107f565b60208301905092915050565b6000602082019050919050565b60006110be82611053565b6110c8818561105e565b93506110d38361106f565b8060005b838110156111045781516110eb888261108e565b97506110f6836110a6565b9250506001810190506110d7565b5085935050505092915050565b6000602082019050818103600083015261112b81846110b3565b905092915050565b600073ffffffffffffffffffffffffffffffffffffffff82169050919050565b600061115e82611133565b9050919050565b61116e81611153565b82525050565b60006020820190506111896000830184611165565b92915050565b61119881610f3e565b82525050565b60006020820190506111b3600083018461118f565b92915050565b600060ff82169050919050565b6111cf816111b9565b81146111da57600080fd5b50565b6000813590506111ec816111c6565b92915050565b6000806040838503121561120957611208610f34565b5b600061121785828601610f5f565b9250506020611228858286016111dd565b9150509250929050565b6000819050919050565b600061125761125261124d84611133565b611232565b611133565b9050919050565b60006112698261123c565b9050919050565b600061127b8261125e565b9050919050565b61128b81611270565b82525050565b60006020820190506112a66000830184611282565b92915050565b600082825260208201905092915050565b7f4f6e6c7920746865206f776e65722063616e2077697468647261770000000000600082015250565b60006112f3601b836112ac565b91506112fe826112bd565b602082019050919050565b60006020820190508181036000830152611322816112e6565b9050919050565b60008151905061133881610f48565b92915050565b60006020828403121561135457611353610f34565b5b600061136284828501611329565b91505092915050565b7f496e73756666696369656e7420636f6e74726163742066756e64730000000000600082015250565b60006113a1601b836112ac565b91506113ac8261136b565b602082019050919050565b600060208201905081810360008301526113d081611394565b9050919050565b60006040820190506113ec6000830185611165565b6113f9602083018461118f565b9392505050565b60008115159050919050565b61141581611400565b811461142057600080fd5b50565b6000815190506114328161140c565b92915050565b60006020828403121561144e5761144d610f34565b5b600061145c84828501611423565b91505092915050565b7f5769746864726177616c206661696c6564000000000000000000000000000000600082015250565b600061149b6011836112ac565b91506114a682611465565b602082019050919050565b600060208201905081810360008301526114ca8161148e565b9050919050565b7f4f6e6c7920746865206f776e65722063616e20736574206d756c7469706c696560008201527f7273000000000000000000000000000000000000000000000000000000000000602082015250565b600061152d6022836112ac565b9150611538826114d1565b604082019050919050565b6000602082019050818103600083015261155c81611520565b9050919050565b7f4f6e6c7920746865206f776e65722063616e206465706f736974000000000000600082015250565b6000611599601a836112ac565b91506115a482611563565b602082019050919050565b600060208201905081810360008301526115c88161158c565b9050919050565b60006060820190506115e46000830186611165565b6115f16020830185611165565b6115fe604083018461118f565b949350505050565b7f546f6b656e206465706f736974206661696c6564000000000000000000000000600082015250565b600061163c6014836112ac565b915061164782611606565b602082019050919050565b6000602082019050818103600083015261166b8161162f565b9050919050565b7f496e76616c6964206361726420696e6465780000000000000000000000000000600082015250565b60006116a86012836112ac565b91506116b382611672565b602082019050919050565b600060208201905081810360008301526116d78161169b565b9050919050565b7f42657420616d6f756e74206d7573742062652067726561746572207468616e2060008201527f3000000000000000000000000000000000000000000000000000000000000000602082015250565b600061173a6021836112ac565b9150611745826116de565b604082019050919050565b600060208201905081810360008301526117698161172d565b9050919050565b7f546f6b656e207472616e73666572206661696c65640000000000000000000000600082015250565b60006117a66015836112ac565b91506117b182611770565b602082019050919050565b600060208201905081810360008301526117d581611799565b9050919050565b6000819050919050565b6117f76117f282610f3e565b6117dc565b82525050565b60008160601b9050919050565b6000611815826117fd565b9050919050565b60006118278261180a565b9050919050565b61183f61183a82611153565b61181c565b82525050565b600061185182876117e6565b60208201915061186182866117e6565b602082019150611871828561182e565b60148201915061188182846117e6565b60208201915081905095945050505050565b7f4e487b7100000000000000000000000000000000000000000000000000000000600052601260045260246000fd5b60006118cd82610f3e565b91506118d883610f3e565b9250826118e8576118e7611893565b5b828206905092915050565b7f4e487b7100000000000000000000000000000000000000000000000000000000600052603260045260246000fd5b7f4e487b7100000000000000000000000000000000000000000000000000000000600052601160045260246000fd5b600061195c82610f3e565b915061196783610f3e565b925082820261197581610f3e565b9150828204841483151761198c5761198b611922565b5b5092915050565b600061199e82610f3e565b91506119a983610f3e565b9250826119b9576119b8611893565b5b828204905092915050565b7f5061796f7574207472616e73666572206661696c656400000000000000000000600082015250565b60006119fa6016836112ac565b9150611a05826119c4565b602082019050919050565b60006020820190508181036000830152611a29816119ed565b9050919050565b611a39816111b9565b82525050565b611a4881611400565b82525050565b6000608082019050611a63600083018761118f565b611a706020830186611a30565b611a7d6040830185611a3f565b611a8a606083018461118f565b95945050505050565b600081519050919050565b60005b83811015611abc578082015181840152602081019050611aa1565b60008484015250505050565b6000601f19601f8301169050919050565b6000611ae482611a93565b611aee81856112ac565b9350611afe818560208601611a9e565b611b0781611ac8565b840191505092915050565b60006040820190508181036000830152611b2c8185611ad9565b9050611b3b6020830184611165565b9392505050565b60006040820190508181036000830152611b5c8185611ad9565b9050611b6b602083018461118f565b9392505050565b60006020820190508181036000830152611b8c8184611ad9565b905092915050565b7f4e487b7100000000000000000000000000000000000000000000000000000000600052605160045260246000fdfea2646970667358221220df1a87e0fee7e44976780d84515ba9bef6bfd15e9a8736ed5cffcbca910300e564736f6c63430008140033",
  "linkReferences": {},
  "deployedLinkReferences": {}
}