{
  "_format": "hh-sol-artifact-1",
  "contractName": "Gambling",
  "sourceName": "contracts/Gambling.sol",
  "abi": [
    {
      "inputs": [
        {
          "internalType": "address",
          "name": "_token",
          "type": "address"
        }
      ],
      "stateMutability": "nonpayable",
      "type": "constructor"
    },
    {
      "anonymous": false,
      "inputs": [
        {
          "indexed": true,
          "internalType": "address",
          "name": "player",
          "type": "address"
        },
        {
          "indexed": false,
          "internalType": "uint256",
          "name": "betAmount",
          "type": "uint256"
        },
        {
          "indexed": false,
          "internalType": "bool",
          "name": "win",
          "type": "bool"
        },
        {
          "indexed": false,
          "internalType": "uint256",
          "name": "payout",
          "type": "uint256"
        }
      ],
      "name": "BetPlaced",
      "type": "event"
    },
    {
      "inputs": [
        {
          "internalType": "uint256",
          "name": "amount",
          "type": "uint256"
        },
        {
          "internalType": "uint8",
          "name": "chance",
          "type": "uint8"
        }
      ],
      "name": "bet",
      "outputs": [],
      "stateMutability": "nonpayable",
      "type": "function"
    },
    {
      "inputs": [
        {
          "internalType": "uint256",
          "name": "amount",
          "type": "uint256"
        }
      ],
      "name": "deposit",
      "outputs": [],
      "stateMutability": "nonpayable",
      "type": "function"
    },
    {
      "inputs": [],
      "name": "owner",
      "outputs": [
        {
          "internalType": "address",
          "name": "",
          "type": "address"
        }
      ],
      "stateMutability": "view",
      "type": "function"
    },
    {
      "inputs": [],
      "name": "token",
      "outputs": [
        {
          "internalType": "contract IERC20",
          "name": "",
          "type": "address"
        }
      ],
      "stateMutability": "view",
      "type": "function"
    },
    {
      "inputs": [
        {
          "internalType": "uint256",
          "name": "amount",
          "type": "uint256"
        }
      ],
      "name": "withdraw",
      "outputs": [],
      "stateMutability": "nonpayable",
      "type": "function"
    }
  ],
  "bytecode": "0x608060405234801561001057600080fd5b506040516110a23803806110a28339818101604052810190610032919061011c565b336000806101000a81548173ffffffffffffffffffffffffffffffffffffffff021916908373ffffffffffffffffffffffffffffffffffffffff16021790555080600160006101000a81548173ffffffffffffffffffffffffffffffffffffffff021916908373ffffffffffffffffffffffffffffffffffffffff16021790555050610149565b600080fd5b600073ffffffffffffffffffffffffffffffffffffffff82169050919050565b60006100e9826100be565b9050919050565b6100f9816100de565b811461010457600080fd5b50565b600081519050610116816100f0565b92915050565b600060208284031215610132576101316100b9565b5b600061014084828501610107565b91505092915050565b610f4a806101586000396000f3fe608060405234801561001057600080fd5b50600436106100575760003560e01c80632e1a7d4d1461005c5780638da5cb5b14610078578063b6b55f2514610096578063c437a0cd146100b2578063fc0c546a146100ce575b600080fd5b6100766004803603810190610071919061089f565b6100ec565b005b61008061031c565b60405161008d919061090d565b60405180910390f35b6100b060048036038101906100ab919061089f565b610340565b005b6100cc60048036038101906100c79190610961565b6104b2565b005b6100d661083e565b6040516100e39190610a00565b60405180910390f35b60008054906101000a900473ffffffffffffffffffffffffffffffffffffffff1673ffffffffffffffffffffffffffffffffffffffff163373ffffffffffffffffffffffffffffffffffffffff161461017a576040517f08c379a000000000000000000000000000000000000000000000000000000000815260040161017190610a78565b60405180910390fd5b80600160009054906101000a900473ffffffffffffffffffffffffffffffffffffffff1673ffffffffffffffffffffffffffffffffffffffff166370a08231306040518263ffffffff1660e01b81526004016101d6919061090d565b602060405180830381865afa1580156101f3573d6000803e3d6000fd5b505050506040513d601f19601f820116820180604052508101906102179190610aad565b1015610258576040517f08c379a000000000000000000000000000000000000000000000000000000000815260040161024f90610b26565b60405180910390fd5b600160009054906101000a900473ffffffffffffffffffffffffffffffffffffffff1673ffffffffffffffffffffffffffffffffffffffff1663a9059cbb60008054906101000a900473ffffffffffffffffffffffffffffffffffffffff16836040518363ffffffff1660e01b81526004016102d5929190610b55565b6020604051808303816000875af11580156102f4573d6000803e3d6000fd5b505050506040513d601f19601f820116820180604052508101906103189190610bb6565b5050565b60008054906101000a900473ffffffffffffffffffffffffffffffffffffffff1681565b60008054906101000a900473ffffffffffffffffffffffffffffffffffffffff1673ffffffffffffffffffffffffffffffffffffffff163373ffffffffffffffffffffffffffffffffffffffff16146103ce576040517f08c379a00000000000000000000000000000000000000000000000000000000081526004016103c590610a78565b60405180910390fd5b600160009054906101000a900473ffffffffffffffffffffffffffffffffffffffff1673ffffffffffffffffffffffffffffffffffffffff166323b872dd3330846040518463ffffffff1660e01b815260040161042d93929190610be3565b6020604051808303816000875af115801561044c573d6000803e3d6000fd5b505050506040513d601f19601f820116820180604052508101906104709190610bb6565b6104af576040517f08c379a00000000000000000000000000000000000000000000000000000000081526004016104a690610c66565b60405180910390fd5b50565b60008160ff161180156104c9575060648160ff1611155b610508576040517f08c379a00000000000000000000000000000000000000000000000000000000081526004016104ff90610cd2565b60405180910390fd5b600160009054906101000a900473ffffffffffffffffffffffffffffffffffffffff1673ffffffffffffffffffffffffffffffffffffffff166323b872dd3330856040518463ffffffff1660e01b815260040161056793929190610be3565b6020604051808303816000875af1158015610586573d6000803e3d6000fd5b505050506040513d601f19601f820116820180604052508101906105aa9190610bb6565b6105e9576040517f08c379a00000000000000000000000000000000000000000000000000000000081526004016105e090610c66565b60405180910390fd5b60006001606442443360405160200161060493929190610d5b565b6040516020818303038152906040528051906020012060001c6106279190610dc7565b6106319190610e27565b9050600080600090508360ff1683116107e557600191508360ff166064866106599190610e5b565b6106639190610e9d565b905080600160009054906101000a900473ffffffffffffffffffffffffffffffffffffffff1673ffffffffffffffffffffffffffffffffffffffff166370a08231306040518263ffffffff1660e01b81526004016106c1919061090d565b602060405180830381865afa1580156106de573d6000803e3d6000fd5b505050506040513d601f19601f820116820180604052508101906107029190610aad565b1015610743576040517f08c379a000000000000000000000000000000000000000000000000000000000815260040161073a90610b26565b60405180910390fd5b600160009054906101000a900473ffffffffffffffffffffffffffffffffffffffff1673ffffffffffffffffffffffffffffffffffffffff1663a9059cbb33836040518363ffffffff1660e01b81526004016107a0929190610b55565b6020604051808303816000875af11580156107bf573d6000803e3d6000fd5b505050506040513d601f19601f820116820180604052508101906107e39190610bb6565b505b3373ffffffffffffffffffffffffffffffffffffffff167fb2dea862933fda054de6f12d6e0b7affaff4ba9f6aa471c7532461410d6ba46d86848460405161082f93929190610edd565b60405180910390a25050505050565b600160009054906101000a900473ffffffffffffffffffffffffffffffffffffffff1681565b600080fd5b6000819050919050565b61087c81610869565b811461088757600080fd5b50565b60008135905061089981610873565b92915050565b6000602082840312156108b5576108b4610864565b5b60006108c38482850161088a565b91505092915050565b600073ffffffffffffffffffffffffffffffffffffffff82169050919050565b60006108f7826108cc565b9050919050565b610907816108ec565b82525050565b600060208201905061092260008301846108fe565b92915050565b600060ff82169050919050565b61093e81610928565b811461094957600080fd5b50565b60008135905061095b81610935565b92915050565b6000806040838503121561097857610977610864565b5b60006109868582860161088a565b92505060206109978582860161094c565b9150509250929050565b6000819050919050565b60006109c66109c16109bc846108cc565b6109a1565b6108cc565b9050919050565b60006109d8826109ab565b9050919050565b60006109ea826109cd565b9050919050565b6109fa816109df565b82525050565b6000602082019050610a1560008301846109f1565b92915050565b600082825260208201905092915050565b7f556e697175656d656e74206c652070726f707269657461697265000000000000600082015250565b6000610a62601a83610a1b565b9150610a6d82610a2c565b602082019050919050565b60006020820190508181036000830152610a9181610a55565b9050919050565b600081519050610aa781610873565b92915050565b600060208284031215610ac357610ac2610864565b5b6000610ad184828501610a98565b91505092915050565b7f466f6e647320696e737566666973616e74730000000000000000000000000000600082015250565b6000610b10601283610a1b565b9150610b1b82610ada565b602082019050919050565b60006020820190508181036000830152610b3f81610b03565b9050919050565b610b4f81610869565b82525050565b6000604082019050610b6a60008301856108fe565b610b776020830184610b46565b9392505050565b60008115159050919050565b610b9381610b7e565b8114610b9e57600080fd5b50565b600081519050610bb081610b8a565b92915050565b600060208284031215610bcc57610bcb610864565b5b6000610bda84828501610ba1565b91505092915050565b6000606082019050610bf860008301866108fe565b610c0560208301856108fe565b610c126040830184610b46565b949350505050565b7f5472616e7366657274206563686f756500000000000000000000000000000000600082015250565b6000610c50601083610a1b565b9150610c5b82610c1a565b602082019050919050565b60006020820190508181036000830152610c7f81610c43565b9050919050565b7f4368616e636520696e76616c6964650000000000000000000000000000000000600082015250565b6000610cbc600f83610a1b565b9150610cc782610c86565b602082019050919050565b60006020820190508181036000830152610ceb81610caf565b9050919050565b6000819050919050565b610d0d610d0882610869565b610cf2565b82525050565b60008160601b9050919050565b6000610d2b82610d13565b9050919050565b6000610d3d82610d20565b9050919050565b610d55610d50826108ec565b610d32565b82525050565b6000610d678286610cfc565b602082019150610d778285610cfc565b602082019150610d878284610d44565b601482019150819050949350505050565b7f4e487b7100000000000000000000000000000000000000000000000000000000600052601260045260246000fd5b6000610dd282610869565b9150610ddd83610869565b925082610ded57610dec610d98565b5b828206905092915050565b7f4e487b7100000000000000000000000000000000000000000000000000000000600052601160045260246000fd5b6000610e3282610869565b9150610e3d83610869565b9250828201905080821115610e5557610e54610df8565b5b92915050565b6000610e6682610869565b9150610e7183610869565b9250828202610e7f81610869565b91508282048414831517610e9657610e95610df8565b5b5092915050565b6000610ea882610869565b9150610eb383610869565b925082610ec357610ec2610d98565b5b828204905092915050565b610ed781610b7e565b82525050565b6000606082019050610ef26000830186610b46565b610eff6020830185610ece565b610f0c6040830184610b46565b94935050505056fea2646970667358221220835c4562fb8765c2799b69d0ea64ff73ba2f855e8cebf36e55a7b9c99224528064736f6c634300081c0033",
  "linkReferences": {},
  "deployedLinkReferences": {}
}